:100000000C9448010C9467010C9467010C946701EF
:100010000C9467010C9467010C9467010C946701C0
:100020000C9467010C9467010C9467010C946701B0
:100030000C9467010C9467010C9467010C946701A0
:100040000C9467010C9467010C9467010C94670190
:100050000C9467010C9467010C9467010C94670180
:100060000C9467010C9467010C9467010C94670170
:100070000C9467010C9467010C9467010C94670160
:100080000C9467010C9467010C9467010C94670150
:100090000C9467010C9467018A08A9088E089708D8
:1000A000A008B808C608DE080C09E208EB08F40846
:1000B000FD081A09000000000000005F00000003B6
:1000C000000300143E143E14242A7F2A12433308EE
:1000D000666136495522500005030000001C22418C
:1000E000000041221C0014083E081408083E0808BD
:1000F0000050300000080808080800606000002078
:10010000100804023E5149453E0004027F0042614E
:1001100051494622414949361814127F1027454556
:1001200045393E4949493201017109073649494972
:1001300036264949493E0036360000005636000052
:10014000081422410014141414140041221408024B
:10015000015109063E4159555E7E0909097E7F49D4
:100160004949363E414141227F4141413E7F494913
:1001700049417F090909013E4141493A7F08080880
:100180007F00417F4100304040403F7F08142241C2
:100190007F404040407F020C027F7F0204087F3E88
:1001A0004141413E7F090909061E2121215E7F0947
:1001B000090976264949493201017F01013F404042
:1001C000403F1F2040201F7F2010207F41221C2203
:1001D0004107087008076151494543007F4100000D
:1001E00002040810200000417F00040201020440C4
:1001F00040404040000102040020545454787F44A1
:100200004444383844444444384444447F38545483
:10021000541804047E0505085454543C7F08040413
:100220007800447D40002040443D007F1028440079
:1002300000417F40007C047804787C08040478380E
:10024000444444387C14141408081414147C007CAE
:10025000080404485454542004043F44443C40409F
:10026000207C1C2040201C3C4030403C442810286E
:10027000440C5050503C4464544C440008364141B6
:1002800000007F0000414136080002010204020024
:1002900011241FBECFEFD0E2DEBFCDBF11E0A0E042
:1002A000B1E0E2EBF3E200E00BBF02C007900D9279
:1002B000A631B107D9F721E0A6E1B1E001C01D9256
:1002C000A832B207E1F70E94E40D0C94D7110C9408
:1002D000000093E89093B00091E09093B100809378
:1002E000B300089590931B0180931A0126E330E038
:1002F00020930040009779F480EF90E090931701ED
:100300008093160180E491E0909319018093180185
:1003100088E490E034C08130910579F480E491E084
:10032000909317018093160180EF90E0909319014C
:100330008093180188EE90E022C08230910579F414
:1003400080EF90E0909317018093160180E491E094
:10035000909319018093180188E890E010C00397EA
:1003600081F480E491E0909317018093160180EF6F
:1003700090E0909319018093180188E290E08093B7
:1003800000418AE290E08093004020E030E030932A
:10039000004120930041809116019091170101972F
:1003A00090930041809300418BE290E08093004065
:1003B00030930041209300418091180190911901E0
:1003C000019790930041809300410895CF93873720
:1003D00048F4883048F08D3350F48F3150F4803138
:1003E00020F009C086E703C088E0C3E005C0C0E094
:1003F00003C0C1E001C0C2E021EB30E02093004027
:10040000C0930041682F70E080E090E00E94300FC0
:100410009B01AC0160E070E080EF94E40E94860EE6
:100420000E94FF0E70E002C075956795CA95E2F7CD
:1004300060930041CF9108950F931F93CF93DF9363
:10044000CDB7DEB728970FB6F894DEBF0FBECDBF8D
:1004500029833A834B835C836D837E838F83988764
:1004600069817A812B813C814D815E818F81988564
:10047000EAE2F0E0E09300407093004160930041B5
:100480003093004120930041EBE2F0E0E093004024
:10049000509300414093004190930041809300416C
:1004A000ECE2F0E0E09300402F5F3F4F261B370B5C
:1004B0000196841B950B2817390790F4482F477035
:1004C000429FB001439F700D112453E0969587958C
:1004D0005A95E1F7829FA001839F500D112411C00E
:1004E000422F4770489FB001499F700D112443E08F
:1004F000369527954A95E1F7289FA001299F500D31
:100500001124862F8770815028F0109300410093AA
:100510000041F9CFCB0123E0969587952A95E1F725
:10052000840F951F019708F110930041009300413B
:10053000109300410093004110930041009300414B
:10054000109300410093004110930041009300413B
:10055000109300410093004110930041009300412B
:100560001093004100930041DDCF28960FB6F89418
:10057000DEBF0FBECDBFDF91CF911F910F910895C8
:10058000EF92FF920F931F93CF93DF93CDB7DEB718
:1005900028970FB6F894DEBF0FBECDBF29833A83EC
:1005A0004B835C836D837E838F83988789819A8157
:1005B000EB80FC806D817E81AF81B8852AE230E0DE
:1005C000209300409093004180930041F0920041BD
:1005D000E09200412BE230E0209300407093004114
:1005E00060930041B0930041A09300412CE230E0C1
:1005F00020930040E816F906A0F0A8019B018A01AB
:10060000A217B30760F04E5F5F4FF80100811181C0
:1006100010930041009300412F5F3F4FF0CF0196B0
:10062000E9CF28960FB6F894DEBF0FBECDBFDF919D
:10063000CF911F910F91FF90EF9008950F931F930B
:10064000CF93DF93CDB7DEB728970FB6F894DEBF10
:100650000FBECDBFE6E1F1E017821682118610864B
:100660001A821982808191810197482F9C838B8304
:100670001E821D8282819381019798878F830485D2
:10068000158520E03A815C8160E07E8198850E943A
:100690001C0228960FB6F894DEBF0FBECDBFDF91C7
:1006A000CF911F910F91089586E08093750080E8A7
:1006B000809374003F9A249A8FEC97E00197F1F7AA
:1006C00000C0000047988FE39CE90197F1F700C054
:1006D0000000479A9FEF2DEE82E09150204080402D
:1006E000E1F700C0000088E290E08093004081E1E3
:1006F00090E0809300409FEF26E781E091502040FA
:100700008040E1F700C0000021E030E08BEC90E099
:10071000809300402093004180EC90E08093004063
:1007200088E096E2909300418093004120E130E020
:1007300081EC90E0809300402093004185EC90E0B4
:10074000809300408EE395E39093004180930041B5
:1007500025EB30E087EC90E080930040209300414F
:1007600021E030E086EF90E080930040209300414C
:1007700080E090E0909300418093004125E530E0D7
:100780008AE390E0809300402093004181E090E074
:100790000E9472010E941E03E6E1F1E017821682B8
:1007A00011861086158614868FEF9FEF93878287B8
:1007B00089E290E0809300409FE728E381E0915038
:1007C00020408040E1F700C0000020E030E085E3F9
:1007D00090E08093004020930041EAE6F0E08081C1
:1007E000806280832C9A08959F92AF92BF92CF929D
:1007F000DF92EF92FF920F931F93CF93DF9360915D
:100800001C0170911D0120911E0130911F018A3041
:10081000F9F410921D0110921C01285F3F4F309394
:100820001F0120931E018091180190911901281732
:10083000390708F4A1C0DF91CF911F910F91FF906C
:10084000EF90DF90CF90BF90AF909F900C941E03DD
:1008500090EE980F9F3508F08FC0A901495F5F4F58
:10086000082E000C990B8097E5E0E89FE001E99FD6
:10087000D00D11248BE290E0809300403093004132
:10088000209300415093004140930041CB01DB0194
:1008900014960AE210E0ECE2EE2EF12CA817B9074C
:1008A00080F1009300409093004180930041909329
:1008B000004180930041E0920040FC01E61BF70BF1
:1008C000EC0FFD1FEC54FF4F94906901F1E04C15C3
:1008D0005D05A8F0BF2EB92029F0A0902001B090AE
:1008E000210104C0A0902201B0902301B0920041E8
:1008F000A0920041EFEFCE1ADE0AFF0FE8CF01967B
:10090000CDCF6AE270E06093004090930041809305
:10091000004190930041809300418CE290E08093ED
:1009200000404217530758F0809122019091230113
:1009300090930041809300412F5F3F4FF2CF809111
:100940001C0190911D01069690931D0180931C013E
:1009500020911601309117018217930768F01092C9
:100960001D0110921C0180911E0190911F0108969B
:1009700090931F0180931E01DF91CF911F910F91E2
:10098000FF90EF90DF90CF90BF90AF909F90089531
:100990000F931F93CF938C01C0E0F801EC0FF11D72
:1009A0008081882321F00E94F403CF5FF6CFCF919E
:1009B0001F910F910895E6E1F1E097838683718797
:1009C00060870895E6E1F1E0938782877587648701
:1009D00008950F931F93CF938C0170931D01609323
:1009E0001C0150931F0140931E01C0E0F801EC0F61
:1009F000F11D8081882321F00E94F403CF5FF6CFA0
:100A0000CF911F910F910895977025E09695879546
:100A10002A95E1F70895892F86958695869590E029
:100A200008958F719927089595E0660F771F9A951D
:100A3000E1F7460F571F20E030E0382F330F330F18
:100A4000330FCA01820F931F08954F925F926F92E6
:100A50007F928F929F92AF92BF92CF92DF92EF924E
:100A6000FF92CF93DF93EC012A013B01BC01672F7A
:100A7000772766956695669580E090E00E942E0F38
:100A8000A30192010E943D1020E030E040E05FE3CE
:100A90000E94150E0E94FF0E4B015C01BE01777093
:100AA00055E0769567955A95E1F780E090E00E94D1
:100AB0002E0FA30192010E943D1020E030E040E0A3
:100AC0005FE30E94150E0E94FF0E6B017C01BE01C8
:100AD0006F71772780E090E00E942E0FA3019201B2
:100AE0000E943D1020E030E040E05FE30E94150EE0
:100AF0000E94FF0E94012032310510F02FE130E00A
:100B00004901982C8824990C990C990CAB016032FE
:100B1000710510F04FE150E0480D591DC6018034B9
:100B2000910510F08FE390E025E0880F991F2A953A
:100B3000E1F7840F951FDF91CF91FF90EF90DF9049
:100B4000CF90BF90AF909F908F907F906F905F906D
:100B50004F900895CF92DF92EF92FF926B017C014C
:100B600020E030E0A9010E94810E87FF11C0C7017B
:100B7000B6010E946B0F9B01AC01C701B6010E9438
:100B8000140E9B01AC0160E070E080E89FE308C0B8
:100B9000C701B6010E946B0F9B01AC01C701B601F2
:100BA0000E94140EFF90EF90DF90CF9008950E9466
:100BB000AA059B01AC0160E070E080E89FE30E9421
:100BC000140E08952F923F924F925F926F927F92F0
:100BD0008F929F92AF92BF92CF92DF92EF92FF924D
:100BE0000F931F93CF93DF93CDB7DEB76C970FB6FC
:100BF000F894DEBF0FBECDBF2B013C012D833A8799
:100C00004B875C87E982F986AD86BE86CF86D88A17
:100C10001401B501C6010E94140E6B017C01E89419
:100C2000F7F89201A30169817985C8010E94140E29
:100C30009B01AC015F77C701B6010E94140E6D8B5A
:100C40007E8B8F8B988F20E030E0A9010E943810B6
:100C50001816C4F439812985902F812FA982B9866D
:100C60000F8518893D872E879F87888B342D252DEA
:100C7000962D872D4D805A846B847C843D832A87F2
:100C80009B878C8729813985A801B201C3010E9405
:100C900038101816DCF43D812A859B858C854D859E
:100CA0004D834E854A874F854B8748894C873D87C2
:100CB0002E879F87888B342D252D962D872D498053
:100CC0005984380139832987092F182F2D813A85B6
:100CD0004B855C856D857E858F8598890E94140E75
:100CE0006B017C019201A30169817985C8010E9491
:100CF000140E9B01AC01C701B6010E94860E698FDC
:100D00007A8F8B8F9C8F20E030E040E05FE3B20170
:100D1000C3010E94150E6B017C010E94F80E698BC5
:100D20007A8B8B8B9C8B29893A89B901330F880B7D
:100D3000990B0E94300F9201A3010E94140E9B0197
:100D4000AC01698D7A8D8B8D9C8D0E943D109B012D
:100D5000AC016D817A858B859C850E94150E4B01B7
:100D60005C01C701B6010E94D7052B013C01C501FA
:100D7000B4010E94FF0E6B017C0120E030E0A9016C
:100D80006D897E898F89988D0E9438101816A4F578
:100D9000C501B4010E94D705A30192010E943D1034
:100DA00020E030E040E85FE30E94150EAB01BC019B
:100DB000C1010E942505AC0169897A89C6010E949A
:100DC0008609C501B4010E94AA05A30192010E94EF
:100DD0003D1020E030E040E85FE30E94150EAB01DB
:100DE000BC01C1010E9425053FEFC31AD30AAC0123
:100DF00069897A89C60132C0C501B4010E94D7054C
:100E0000A30192010E943D1020E030E040E85FE342
:100E10000E94150EAB01BC01C1010E942505AC0169
:100E2000B60189899A890E948609C501B4010E9488
:100E3000AA05A30192010E943D1020E030E040E8A5
:100E40005FE30E94150EAB01BC01C1010E942505A4
:100E5000B6016F5F7F4FAC0189899A890E9486092C
:100E6000298D3A8D4B8D5C8DC501B4010E94150E04
:100E70002B013C0120E030E040E05FE369817985AF
:100E8000C8010E94150E4B015C010E94F80E6D8393
:100E90007E838F8398872D813E81B901330F880B24
:100EA000990B0E94300F29813985A8010E94140EE8
:100EB0009B01AC01698D7A8D8B8D9C8D0E943D10BC
:100EC0009B01AC016D857E858F8598890E94150EEA
:100ED0006B017C01C501B4010E94D7054B015C0187
:100EE0000D811E81C701B6010E94FF0E69837A83BE
:100EF0008B839C8320E030E0A9016D897E898F89F6
:100F0000988D0E943810181644F5C701B6010E944A
:100F1000D705A50194010E943D10AB01BC01C101A0
:100F20000E942505AC016D817E8189819A810E9494
:100F30008609C701B6010E94AA05A50194010E9475
:100F40003D10AB01BC01C1010E942505AC018981A6
:100F50009A8101966D817E8128C0C701B6010E94E9
:100F6000D705A50194010E943D10AB01BC01C10150
:100F70000E942505AC0169817A818D819E810E9444
:100F80008609C701B6010E94AA05A50194010E9425
:100F90003D10AB01BC01C1010E94250569817A8128
:100FA0006F5F7F4FAC018D819E810E948609E98829
:100FB000FA883FEFE31AF30AE016F10608F060C082
:100FC00020E030E0A9016D897E898F89988D0E948B
:100FD000381018161CF5C301B2010E94D705AB01E9
:100FE000BC01C1010E9425056C01C301B2010E9430
:100FF000FF0E4B015C01A601B701C4010E948609E6
:10100000C301B2010E94AA05AB01BC01C1010E944B
:101010002505AC01C4010196B70122C0C301B2018C
:101020000E94D705AB01BC01C1010E9425056C01DE
:10103000C301B2010E94FF0E4B015C01A601C70172
:101040000E948609C301B2010E94AA05AB01BC013E
:10105000C1010E942505B4016F5F7F4FAC01C7013C
:101060000E948609298D3A8D4B8D5C8DC301B2019A
:101070000E94150E2B013C014FEFE41AF40A9CCF9D
:101080006C960FB6F894DEBF0FBECDBFDF91CF9147
:101090001F910F91FF90EF90DF90CF90BF90AF9096
:1010A0009F908F907F906F905F904F903F902F9088
:1010B0000895CF92DF92EF92FF920F931F93FC015E
:1010C0000081118122813381FB01C080D180E280C7
:1010D000F380FC01C082D182E282F382FB010083B3
:1010E0001183228333831F910F91FF90EF90DF9044
:1010F000CF9008950C945403CF93DF93DC01EB0160
:10110000FA013197E730F10508F047C0E45BFF4F83
:101110000C94E90D8D919C91119733C08D919C9108
:1011200011979195819591098D939C9336C08D91DE
:101130009C9111979195819591098D939C9326C0CF
:101140008D919C91119791958195910911969C9300
:101150008E9388819981919581959109998388834E
:101160002D913C9111978D939C933983288315C0C1
:101170008D919C91119791958195910911969C93D0
:101180008E93288139812D933C9305C08881998164
:1011900091958195910999838883DF91CF910895E5
:1011A000CF93DF93DC01EB01FA013197E730F105D2
:1011B00008F047C0ED5AFF4F0C94E90D8D919C91BA
:1011C000119733C08D919C911197919581959109BB
:1011D0008D939C9336C08D919C911197919581959B
:1011E00091098D939C9326C08D919C911197919517
:1011F0008195910911969C938E93888199819195FF
:1012000081959109998388832D913C9111978D93B4
:101210009C933983288315C08D919C91119791954A
:101220008195910911969C938E93288139812D93F4
:101230003C9305C088819981919581959109998305
:101240008883DF91CF910895FC0120813181FB01DA
:1012500040815181FC0151834083FB013183208314
:101260000895CF92DF92EF92FF920F931F93CF9347
:10127000DF938901061B170BEA01C81BD90BB801C4
:10128000012E000C880B990B0E94300F6B017C0122
:10129000E894F7F8BE010D2E000C880B990B0E9404
:1012A000300F9B01AC015F77C701B6010E94381077
:1012B000181694F417FF09C02D2F221F2227221F72
:1012C00086E090E0821B910918C08D2F881F882727
:1012D000881F90E0019611C017FF05C0D7FD08C018
:1012E00087E090E00AC0D7FD06C080E090E005C02E
:1012F00084E090E002C083E090E0DF91CF911F9105
:101300000F91FF90EF90DF90CF9008952AE230E0A8
:1013100020930040909300418093004190930041BE
:10132000809300418BE290E08093004070930041F5
:101330006093004170930041609300418CE290E023
:1013400080930040509300414093004108952F92B4
:101350003F924F925F926F927F928F929F92AF9245
:10136000BF92CF92DF92EF92FF920F931F93CF9392
:10137000DF93CDB7DEB760970FB6F894DEBF0FBE30
:10138000CDBF9E838D8378876F835A8749873C873B
:101390002B87A8010E9486092B853C8549855A85A3
:1013A0006F8178858D819E810E9431091C01AC017D
:1013B000BE01695F7F4FCE0105960E94D008A10152
:1013C000BE01655F7F4FCE0109960E94D008CF8095
:1013D000D884ED80FE8089859A858E199F094B847B
:1013E0005C844C185D08440C551C052C000C6608E8
:1013F0007708AC01092E000C660B770B53014201F4
:10140000841A950AA60AB70A2FEFE21AF20A880F81
:10141000991F9C01990F440B550B2D873E874F87D1
:10142000588B89859A858E159F057CF1D501C4015D
:10143000840D951DA61DB71DB7FE03C04C015D01AF
:101440000DC03FEFC31AD30A4C015D012D853E85C7
:101450004F855889821A930AA40AB50AFC82EB8246
:10146000DA82C982A101BE016F5F7F4FCE01039670
:101470000E947C0869817A81A8018B819C810E94ED
:1014800086093FEFE31AF30ACCCF60960FB6F894C3
:10149000DEBF0FBECDBFDF91CF911F910F91FF90A7
:1014A000EF90DF90CF90BF90AF909F908F907F9004
:1014B0006F905F904F903F902F9008954F925F9262
:1014C0006F927F928F929F92AF92BF92CF92DF9254
:1014D000EF92FF920F931F93CF93DF93EC017B0169
:1014E0006A0159014B01820E931E3C01640E751E68
:1014F000A801B401C3010E9486092E014C185D08A1
:10150000A801B401C2010E94860947018A189B08FC
:10151000A801B401C3010E948609A801B401C20157
:101520000E94860937016C0C7D1C45018C0E9D1EA6
:10153000A801B301C4010E948609CA19DB09A801E8
:10154000B301CE010E948609EC18FD08A801B7017D
:10155000C4010E948609A801B701CE01DF91CF9195
:101560001F910F91FF90EF90DF90CF90BF90AF90C1
:101570009F908F907F906F905F904F900C94860912
:101580002F923F924F925F926F927F928F929F9293
:10159000AF92BF92CF92DF92EF92FF920F931F9381
:1015A000CF93DF9300D000D0CDB7DEB79A83898385
:1015B0001B0169017A011C830B83AEEFBFEF0E9410
:1015C000F50D2B013C0123E0420E511C611C711CE6
:1015D000812C912C54018C149D04AE04BF040CF09A
:1015E00048C00B811C819601A401B10189819A81B7
:1015F0000E945E0A8FEF881A980AA80AB80A77FE36
:1016000013C0D501C40132E0880F991FAA1FBB1F68
:101610003A95D1F7480E591E6A1E7B1EE6E04E0E23
:10162000511C611C711C1BC0F1E0CF1AD108E108EC
:10163000F108D501C4018C199D09AE09BF0922E04A
:10164000880F991FAA1FBB1F2A95D1F7480E591E54
:101650006A1E7B1E2AE0420E511C611C711C0B810C
:101660001C819601A401B10189819A810E945E0AC0
:10167000B2CF0F900F900F900F90DF91CF911F91ED
:101680000F91FF90EF90DF90CF90BF90AF909F9021
:101690008F907F906F905F904F903F902F90089524
:1016A0000F931F93CF93DF93CDB7DEB760970FB63D
:1016B000F894DEBF0FBECDBFE1E6F0E080E88083A6
:1016C00010820E947A0800EE1FEF24E630E040E02E
:1016D00050E068E770E080EA90E00E94C00A2FE0E6
:1016E00030E040E050E06BE470E083E790E00E947F
:1016F000C00A2FE030E040E050E06BE470E08DEC99
:1017000090E00E94C00A88E0E6E0F1E0DE01199670
:1017100001900D928A95E1F788E0EEE0F1E0DE01BC
:10172000119601900D928A95E1F70DEC1CEC2CECD2
:101730003DE340EE5FEFBE016F5F7F4FCE01099644
:101740000E94080D60960FB6F894DEBF0FBECDBFA5
:10175000DF91CF911F910F9108954F925F926F92F9
:101760007F928F929F92AF92BF92CF92DF92EF9231
:10177000FF920F931F93CF93DF9300D000D0CDB78C
:10178000DEB76B017C018A019B01AC0160E070E077
:1017900080E89FE30E94140E4B015C0120E030E0E2
:1017A00040E450E40E943D102B013C01A50194014E
:1017B000C501B4010E943D10A50194010E943D1095
:1017C00069837A838B839C83F8016081718180E0D7
:1017D00090E00E942E0F9B01AC0169817A818B8180
:1017E0009C810E943D1069837A838B839C83A50131
:1017F0009401C301B2010E943D10A70196010E940D
:101800003D104B015C01F8016281738180E090E042
:101810000E942E0F9B01AC01C501B4010E943D1036
:101820009B01AC0169817A818B819C810E94150E9C
:101830004B015C01A7019601C301B2010E943D105A
:10184000A70196010E943D102B013C01F801648123
:10185000758180E090E00E942E0F9B01AC01C301D6
:10186000B2010E943D109B01AC01C501B4010E9470
:10187000150E4B015C01A7019601C701B6010E943C
:101880003D10A70196010E943D106B017C01F801FB
:1018900086819781BC0180E090E00E942E0F9B0121
:1018A000AC01C701B6010E943D109B01AC01C5010E
:1018B000B4010E94150E0E94F80E072E000C880B32
:1018C000990B0E94300F20E030E040E05FE30E947F
:1018D000150E0E94F80ECB010F900F900F900F90F5
:1018E000DF91CF911F910F91FF90EF90DF90CF90FC
:1018F000BF90AF909F908F907F906F905F904F9030
:1019000008952F923F924F925F926F927F928F92A3
:101910009F92AF92BF92CF92DF92EF92FF920F937E
:101920001F93CF93DF93CDB7DEB728970FB6F89408
:10193000DEBF0FBECDBF6C015B014A01280139013A
:10194000AC0160E070E0CB010E94AD0B382E292E77
:10195000A50160E070E0CB010E94AD0B89839A8302
:10196000780168867F8220E030E040E85FE3B201E2
:10197000C3010E94150E9B01AC01B70188859F81B0
:101980000E94810E87FF2BC0A601B70188859F8129
:101990000E94AD0B8B839C83A501B70188859F8135
:1019A0000E94AD0B8D839E8384019C014B815C81E1
:1019B00069817A81832D922D0E94A7099201A3014A
:1019C000B70188859F810E94150E7B0188879F83C0
:1019D0008D818983EE81EA833B802C80C4CF289659
:1019E0000FB6F894DEBF0FBECDBFDF91CF911F9130
:1019F0000F91FF90EF90DF90CF90BF90AF909F90AE
:101A00008F907F906F905F904F903F902F900895B0
:101A10002F923F924F925F926F927F928F929F92FE
:101A2000AF92BF92CF92DF92EF92FF920F931F93EC
:101A3000CF93DF93CDB7DEB72C970FB6F894DEBF08
:101A40000FBECDBF9C838B837E836D8358874F836E
:101A5000922E832EAC0160E070E0CB010E94AD0BB2
:101A60005C014D815E8160E070E0CB010E94AD0BB6
:101A70002C019801492D582D60E070E080E89FE32B
:101A80000E94860E20E030E040EC5FE30E94150EDD
:101A90000E94FF0E7A8369837B01EE0CFF1CC70155
:101AA0000E94AA10782E692EC7010E94AA106C010C
:101AB000F601419251927F017B866C86EB85FC8515
:101AC000A192B192FC87EB87502E412E1401AA24DB
:101AD000A394B12C89819A81A816B90680F54B810F
:101AE0005C81652D742D832D922D0E94AD0B9C0180
:101AF0004D815E81652D742D832D922D29873A8726
:101B00000E94AD0BF701819391937F0129853A855E
:101B1000EB85FC8521933193FC87EB879801492D58
:101B2000582D652D742D832D922D0E94150E562E45
:101B3000472E382E292EFFEFAF1ABF0ACBCF260132
:101B4000E72CF62C812C912C5C0191E0A91AB108AC
:101B50008A149B04D0F4EFEF8E1A9E0AD201F7018B
:101B600012962D913C91139782E0480E511C4281B0
:101B7000538192E0E90EF11C6D917C910F811885E3
:101B8000808191810E94A709E3CFC6010E943F1185
:101B9000872D962D2C960FB6F894DEBF0FBECDBFC5
:101BA000DF91CF911F910F91FF90EF90DF90CF9039
:101BB000BF90AF909F908F907F906F905F904F906D
:101BC0003F902F900C943F110E94500B80E090E0CA
:101BD0000895EE0FFF1F0024001C0BBE0790F69126
:101BE000E02D0994B7FF0C94FA0D0E94FA0D821BA8
:101BF000930B08950E94050EA59F900DB49F900D24
:101C0000A49F800D911D11240895A29FB001B39F40
:101C1000C001A39F700D811D1124911DB29F700DF5
:101C2000811D1124911D08955058BB27AA270E9499
:101C30002C0E0C94E60F0E94D80F38F00E94DF0F94
:101C400020F039F49F3F19F426F40C94D50F0EF4CC
:101C5000E095E7FB0C94A60FE92F0E94F70F58F3CD
:101C6000BA17620773078407950720F079F4A6F581
:101C70000C9431100EF4E0950B2EBA2FA02D0B0111
:101C8000B90190010C01CA01A0011124FF27591BC1
:101C900099F0593F50F4503E68F11A16F040A22FC7
:101CA000232F342F4427585FF3CF46953795279538
:101CB000A795F0405395C9F77EF41F16BA0B620B37
:101CC000730B840BBAF09150A1F0FF0FBB1F661F7E
:101CD000771F881FC2F70EC0BA0F621F731F841FC1
:101CE00048F4879577956795B795F7959E3F08F0E7
:101CF000B0CF9395880F08F09927EE0F97958795A9
:101D000008950E94820F08F481E008950E949A0EBF
:101D10000C94E60F0E94DF0F58F00E94D80F40F09D
:101D200029F45F3F29F00C94A60F51110C94321046
:101D30000C94D50F0E94F70F68F39923B1F3552344
:101D400091F3951B550BBB27AA27621773078407CE
:101D500038F09F5F5F4F220F331F441FAA1FA9F364
:101D600035D00E2E3AF0E0E832D091505040E69552
:101D7000001CCAF72BD0FE2F29D0660F771F881FB3
:101D8000BB1F261737074807AB07B0E809F0BB0BA6
:101D9000802DBF01FF2793585F4F3AF09E3F5105BA
:101DA00078F00C94A60F0C9432105F3FE4F3983E49
:101DB000D4F3869577956795B795F7959F5FC9F7A3
:101DC000880F911D9695879597F90895E1E0660F24
:101DD000771F881FBB1F621773078407BA0720F09D
:101DE000621B730B840BBA0BEE1F88F7E095089506
:101DF0000E94FF0E6894B1110C94321008950E9455
:101E0000FF0F88F09F5798F0B92F9927B751B0F07E
:101E1000E1F0660F771F881F991F1AF0BA95C9F76E
:101E200014C0B13091F00E943110B1E008950C94CB
:101E30003110672F782F8827B85F39F0B93FCCF37E
:101E4000869577956795B395D9F73EF490958095EB
:101E5000709561957F4F8F4F9F4F0895E89409C00B
:101E600097FB3EF490958095709561957F4F8F4FCD
:101E70009F4F9923A9F0F92F96E9BB279395F695E3
:101E8000879577956795B795F111F8CFFAF4BB0F61
:101E900011F460FF1BC06F5F7F4F8F4F9F4F16C0C5
:101EA000882311F096E911C0772321F09EE8872F4F
:101EB000762F05C0662371F096E8862F70E060E00B
:101EC0002AF09A95660F771F881FDAF7880F969584
:101ED000879597F908950E94191090F09F3748F45C
:101EE000911116F00C94321060E070E080E89FEBE6
:101EF000089526F41B16611D711D811D0C94AC0FF5
:101F00000C94C70F990F0008550FAA0BE0E8FEEFDD
:101F100016161706E807F907C0F012161306E407AD
:101F2000F50798F0621B730B840B950B39F40A26A6
:101F300061F0232B242B252B21F408950A2609F484
:101F4000A140A6958FEF811D811D089597F99F6788
:101F500080E870E060E00895882371F4772321F031
:101F60009850872B762F07C0662311F499270DC050
:101F70009051862B70E060E02AF09A95660F771FEB
:101F8000881FDAF7880F9695879597F908959F3FF0
:101F900031F0915020F4879577956795B795880F24
:101FA000911D9695879597F908959FEF80EC089578
:101FB00000240A9416161706180609060895002428
:101FC0000A9412161306140605060895092E0394A2
:101FD000000C11F4882352F0BB0F40F4BF2B11F416
:101FE00060FF04C06F5F7F4F8F4F9F4F089557FD75
:101FF0009058440F551F59F05F3F71F04795880F77
:1020000097FB991F61F09F3F79F08795089512160D
:1020100013061406551FF2CF4695F1DF08C01616B9
:1020200017061806991FF1CF86957105610508946A
:1020300008950E94FF0FA0F0BEE7B91788F4BB27F0
:102040009F3860F41616B11D672F782F8827985F88
:10205000F7CF869577956795B11D93959639C8F317
:102060000895E894BB2766277727CB0197F9089551
:102070000E94820F08F48FEF08950E9450100C9474
:10208000E60F0E94D80F38F00E94DF0F20F0952352
:1020900011F00C94A60F0C94D50F11240C9432104F
:1020A0000E94F70F70F3959FC1F3950F50E0551FF5
:1020B000629FF001729FBB27F00DB11D639FAA279D
:1020C000F00DB11DAA1F649F6627B00DA11D661FEC
:1020D000829F2227B00DA11D621F739FB00DA11D0D
:1020E000621F839FA00D611D221F749F3327A00DC7
:1020F000611D231F849F600D211D822F762F6A2F63
:1021000011249F5750409AF0F1F088234AF0EE0FC7
:10211000FF1FBB1F661F771F881F91505040A9F7F4
:102120009E3F510580F00C94A60F0C9432105F3F37
:10213000E4F3983ED4F3869577956795B795F79530
:10214000E7959F5FC1F7FE2B880F911D96958795A8
:1021500097F90895CF93DF938230910510F482E0D0
:1021600090E0E0912601F091270120E030E0C0E00E
:10217000D0E0309711F14081518148175907C0F0E4
:102180004817590761F482819381209719F09B8346
:102190008A832BC0909327018093260126C02115A6
:1021A000310519F04217530718F49A01BE01DF01F7
:1021B000EF010280F381E02DDCCF2115310509F11B
:1021C000281B390B2430310590F412968D919C9187
:1021D00013976115710521F0FB019383828304C07D
:1021E0009093270180932601FD01329644C0FD01A2
:1021F000E20FF31F81939193225031092D933C9369
:102200003AC02091240130912501232B41F42091E3
:102210000201309103013093250120932401209184
:102220000001309101012115310541F42DB73EB770
:102230004091040150910501241B350BE0912401CC
:10224000F0912501E217F307A0F42E1B3F0B28178E
:10225000390778F0AC014E5F5F4F2417350748F01F
:102260004E0F5F1F5093250140932401819391935A
:1022700002C0E0E0F0E0CF01DF91CF9108950F932D
:102280001F93CF93DF93009709F48CC0FC01329722
:102290001382128200912601109127010115110568
:1022A00081F420813181820F931F2091240130918C
:1022B00025012817390779F5F0932501E0932401CA
:1022C00071C0D80140E050E0AE17BF0750F412963D
:1022D0002D913C911397AD012115310509F1D901DB
:1022E000F3CF9D01DA013383228360817181860FF0
:1022F000971F8217930769F4EC0128813981260F13
:10230000371F2E5F3F4F318320838A819B819383C8
:102310008283452B29F4F0932701E093260142C0E4
:102320001396FC93EE931297ED01499159919E01FA
:10233000240F351FE217F30771F480819181840F18
:10234000951F029611969C938E938281938113968A
:102350009C938E931297E0E0F0E0D80112968D9155
:102360009C911397009719F0F8018C01F6CF8D918D
:102370009C9198012E5F3F4F820F931F2091240163
:10238000309125012817390769F4309729F4109204
:1023900027011092260102C0138212821093250198
:1023A00000932401DF91CF911F910F910895F8942C
:0223B000FFCF5D
:1023B20000002801200073008700B900CD00A500AD
:0623C200C300C300A500EA
:00000001FF
